:020000040800F2
:1000000000500020D5A0000835A1000835A1000847
:1000100035A1000835A1000835A100080000000046
:1000200000000000000000000000000035A10008F2
:1000300035A100080000000035A10008238E00084B
:1000400035A1000835A1000835A1000835A1000838
:1000500035A1000835A10008399000084390000838
:100060004D900008579000086190000835A10008E5
:1000700035A1000835A1000835A1000835A1000808
:1000800035A1000835A1000835A1000835A10008F8
:1000900035A1000835A1000835A100086B900008C3
:1000A00035A10008B189000835A10008C5890008FC
:1000B000D9890008ED890008018A000835A10008E7
:1000C00035A1000835A1000835A1000835A10008B8
:1000D00035A10008A19F0008B99F0008D19F000822
:1000E0008190000835A1000835A10008000000003B
:1000F0000000000000000000000000000000000000
:0C01000000000000000000005FF808F1A3
:10010C00034613F8012B002AFBD1181A013870474B
:10011C0081F0004102E000BF83F0004330B54FEAAC
:10012C0041044FEA430594EA050F08BF90EA020F19
:10013C001FBF54EA000C55EA020C7FEA645C7FEAAC
:10014C00655C00F0E2804FEA5454D4EB5555B8BFCF
:10015C006D420CDD2C4480EA020281EA030382EA40
:10016C00000083EA010180EA020281EA0303362DD2
:10017C0088BF30BD11F0004F4FEA01314FF4801CA5
:10018C004CEA113102D0404261EB410113F0004FB7
:10019C004FEA03334CEA133302D0524263EB43036E
:1001AC0094EA050F00F0A780A4F10104D5F1200E0C
:1001BC000DDB02FA0EFC22FA05F2801841F1000167
:1001CC0003FA0EF2801843FA05F359410EE0A5F13B
:1001DC0020050EF1200E012A03FA0EFC28BF4CF06C
:1001EC00020C43FA05F3C01851EBE37101F0004522
:1001FC0007D54FF0000EDCF1000C7EEB00006EEB2F
:10020C000101B1F5801F1BD3B1F5001F0CD34908B8
:10021C005FEA30004FEA3C0C04F101044FEA44520F
:10022C0012F5800F80F09A80BCF1004F08BF5FEA96
:10023C00500C50F1000041EB045141EA050130BD76
:10024C005FEA4C0C404141EB0101013C28BFB1F588
:10025C00801FE9D291F0000F04BF01460020B1FAD3
:10026C0081F308BF2033A3F10B03B3F120020CDAA6
:10027C000C3208DD02F1140CC2F10C0201FA0CF084
:10028C0021FA02F10CE002F11402D8BFC2F1200CE9
:10029C0001FA02F120FA0CFCDCBF41EA0C0190409F
:1002AC00E41AA2BF01EB0451294330BD6FEA0404E8
:1002BC001F3C1CDA0C340EDC04F11404C4F12002D3
:1002CC0020FA04F001FA02F340EA030021FA04F3E5
:1002DC0045EA030130BDC4F10C04C4F1200220FA3C
:1002EC0002F001FA04F340EA0300294630BD21FA7A
:1002FC0004F0294630BD94F0000F83F4801306BF40
:10030C0081F480110134013D4EE77FEA645C18BF33
:10031C007FEA655C29D094EA050F08BF90EA020FCA
:10032C0005D054EA000C04BF1946104630BD91EAC2
:10033C00030F1EBF0021002030BD5FEA545C05D1C5
:10034C004000494128BF41F0004130BD14F5800404
:10035C003CBF01F5801130BD01F0004545F0FE4178
:10036C0041F470014FF0000030BD7FEA645C1ABFAD
:10037C00194610467FEA655C1CBF0B46024650EAE4
:10038C00013406BF52EA033591EA030F41F4002110
:10039C0030BD00BF90F0000F04BF0021704730B596
:1003AC004FF4806404F132044FF000054FF000016B
:1003BC0050E700BF90F0000F04BF0021704730B52C
:1003CC004FF4806404F1320410F0004548BF404201
:1003DC004FF000013EE700BF42004FEAE2014FEA56
:1003EC0031014FEA02701FBF12F07F4393F07F4F31
:1003FC0081F06051704732F07F4208BF704793F034
:10040C007F4F04BF41F40021704730B54FF4607446
:10041C0001F0004521F000411CE700BF50EA010249
:10042C0008BF704730B54FF000050AE050EA0102F2
:10043C0008BF704730B511F0004502D5404261EB62
:10044C0041014FF4806404F132045FEA915C3FF4A3
:10045C00D8AE4FF003025FEADC0C18BF03325FEA40
:10046C00DC0C18BF033202EBDC02C2F1200300FAF1
:10047C0003FC20FA02F001FA03FE40EA0E0021FA16
:10048C0002F11444BDE600BF70B54FF0FF0C4CF404
:10049C00E06C1CEA11541DBF1CEA135594EA0C0FB6
:1004AC0095EA0C0F00F0DEF82C4481EA030621EAF1
:1004BC004C5123EA4C5350EA013518BF52EA03352C
:1004CC0041F4801143F4801338D0A0FB02CE4FF0DE
:1004DC000005E1FB02E506F00042E0FB03E54FF00E
:1004EC000006E1FB03569CF0000F18BF4EF0010E06
:1004FC00A4F1FF04B6F5007F64F5407404D25FEA02
:10050C004E0E6D4146EB060642EAC62141EA5551B4
:10051C004FEAC52040EA5E504FEACE2EB4F1FD0CF6
:10052C0088BFBCF5E06F1ED8BEF1004F08BF5FEA74
:10053C00500E50F1000041EB045170BD06F0004626
:10054C0046EA010140EA020081EA0301B4EB5C04D3
:10055C00C2BFD4EB0C0541EA045170BD41F48011CB
:10056C004FF0000E013C00F3AB8014F1360FDEBFF0
:10057C00002001F0004170BDC4F10004203C35DACC
:10058C000C341BDC04F11404C4F1200500FA05F34F
:10059C0020FA04F001FA05F240EA020001F00042F0
:1005AC0021F0004110EBD37021FA04F642EB060166
:1005BC005EEA430E08BF20EAD37070BDC4F10C0490
:1005CC00C4F1200500FA04F320FA05F001FA04F254
:1005DC0040EA020001F0004110EBD37041F1000140
:1005EC005EEA430E08BF20EAD37070BDC4F120054B
:1005FC0000FA05F24EEA020E20FA04F301FA05F2B3
:10060C0043EA020321FA04F001F0004121FA04F25A
:10061C0020EA020000EBD3705EEA430E08BF20EA2A
:10062C00D37070BD94F0000F0FD101F00046400064
:10063C0041EB010111F4801F08BF013CF7D041EAE6
:10064C00060195F0000F18BF704703F000465200EA
:10065C0043EB030313F4801F08BF013DF7D043EABB
:10066C000603704794EA0C0F0CEA135518BF95EA71
:10067C000C0F0CD050EA410618BF52EA4306D1D1F8
:10068C0081EA030101F000414FF0000070BD50EA17
:10069C00410606BF1046194652EA430619D094EAA1
:1006AC000C0F02D150EA013613D195EA0C0F05D18B
:1006BC0052EA03361CBF104619460AD181EA0301DF
:1006CC0001F0004141F0FE4141F470014FF0000097
:1006DC0070BD41F0FE4141F4780170BD70B54FF032
:1006EC00FF0C4CF4E06C1CEA11541DBF1CEA1355B2
:1006FC0094EA0C0F95EA0C0F00F0A7F8A4EB050494
:10070C0081EA030E52EA03354FEA013100F088808A
:10071C004FEA03334FF0805545EA131343EA126353
:10072C004FEA022245EA111545EA10654FEA002608
:10073C000EF000419D4208BF964244F1FD0404F5C1
:10074C00407402D25B084FEA3202B61A65EB03051D
:10075C005B084FEA32024FF480104FF4002CB6EBDA
:10076C00020E75EB030E22BFB61A754640EA0C005A
:10077C005B084FEA3202B6EB020E75EB030E22BF9A
:10078C00B61A754640EA5C005B084FEA3202B6EBDB
:10079C00020E75EB030E22BFB61A754640EA9C009A
:1007AC005B084FEA3202B6EB020E75EB030E22BF6A
:1007BC00B61A754640EADC0055EA060E18D04FEA28
:1007CC00051545EA16754FEA06164FEAC30343EAC8
:1007DC0052734FEAC2025FEA1C1CC0D111F4801F95
:1007EC000BD141EA00014FF000004FF0004CB6E78E
:1007FC0011F4801F04BF01430020B4F1FD0C88BF2D
:10080C00BCF5E06F3FF6AFAEB5EB030C04BFB6EB37
:10081C00020C5FEA500C50F1000041EB045170BD2A
:10082C000EF0004E4EEA113114EB5C04C2BFD4EB57
:10083C000C0541EA045170BD41F480114FF0000EDB
:10084C00013C90E645EA060E8DE60CEA135594EA57
:10085C000C0F08BF95EA0C0F3FF43BAF94EA0C0F5A
:10086C000AD150EA01347FF434AF95EA0C0F7FF4CF
:10087C0025AF104619462CE795EA0C0F06D152EA23
:10088C0003353FF4FDAE1046194622E750EA410607
:10089C0018BF52EA43067FF4C5AE50EA41047FF418
:1008AC000DAF52EA43057FF4EBAE12E74FEA41027B
:1008BC00B2F1E04324BFB3F5001CDCF1FE5C0DD9B2
:1008CC0001F0004C4FEAC0024CEA5070B2F1004FFC
:1008DC0040EB830008BF20F00100704711F0804FFF
:1008EC0021D113F13872BCBF01F00040704741F4C4
:1008FC0080114FEA5252C2F11802C2F1200C10FAC8
:10090C000CF320FA02F018BF40F001004FEAC123AB
:10091C004FEAD32303FA0CFC40EA0C0023FA02F34F
:10092C004FEA4303CCE77FEA625307D150EA013325
:10093C001EBF4FF0FE4040F44000704701F00040F5
:10094C0040F0FE4040F40000704700BF10B5054C6D
:10095C00237833B9044B13B10448AFF3008001235F
:10096C00237010BD140100200000000008BE000818
:10097C0008B5034B1BB103490348AFF3008008BD16
:10098C00000000001801002008BE000810B582B05D
:10099C0025240094234609220A21064809F06AFC02
:1009AC0000942346C222C321034809F063FC02B021
:1009BC0010BD00BF4C0200203401002008B50121FD
:1009CC00C5200AF095F90121C0200AF091F9012106
:1009DC00C4200AF08DF90121C1200AF089F9012106
:1009EC00C9200AF085F9012108200AF081F90121BA
:1009FC00C8200AF07DF90121C7200AF079F90021FD
:100A0C00C5200AF0E9F90021C0200AF0E5F900211F
:100A1C00C4200AF0E1F90021C1200AF0DDF900211F
:100A2C00C9200AF0D9F9012108200AF0D5F90021D2
:100A3C00C8200AF0D1F90021C7200AF0B1F8022130
:100A4C0014200AF055F9022113200AF051F908BDBF
:100A5C0008B50021C5200AF0BFF90021C0200AF01A
:100A6C00BBF90021C4200AF0B7F90021C1200AF01B
:100A7C00B3F90021C9200AF0AFF9012108200AF0CE
:100A8C00ABF90021C8200AF0A7F90021C7200AF011
:100A9C00A3F908BDF8B5FFF791FFFFF7D9FF184C84
:100AAC0006224FF4E131204609F006FE154F0622CE
:100ABC004FF41651384609F0FFFD64200AF0E4F9B2
:100ACC001149204609F0A2FE342008F0BEF8064673
:100ADC0000F0E1FF0D4D2E602146304601F0ACF8E0
:100AEC003946286801F0AAF8286801F00FFA28683E
:100AFC0000F0E4FF0649204609F088FEF8BD00BF6F
:100B0C004C0200203401002028BE000830010020D7
:100B1C004CBE000808B5074B186810B101F070F90D
:100B2C0008BD0549054809F071FE4FF47A700AF0CA
:100B3C00ABF9F5E73001002068BE00084C0200203C
:100B4C0008B5FFF723FF08BD70B504460E460260DA
:100B5C0043600025C0F88050C0F88450C0F888501D
:100B6C00C0F88C5080F8905080F8915080F89250DA
:100B7C0080F89350C0F8C850C0F8CC50C0F8D05092
:100B8C0080F8D45080F8D550174A00F1D80392E879
:100B9C00030083E80300C4F8E060C4F8E450C4F830
:100BAC00E850C4F8EC5084F8F050A560E56025617D
:100BBC006561A561E56125626562A562E56228262D
:100BCC003246294604F130000AF0B8FE3246294676
:100BDC0004F158000AF0B2FE3222294604F19400C6
:100BEC000AF0ACFE204670BD20BE000808B50121FD
:100BFC0019200AF07DF8002119200AF0EDF8642084
:100C0C000AF042F9012119200AF0E6F864200AF0F2
:100C1C003BF908BDC0F8E410C0F8E820C0F8EC308F
:100C2C00704790F8F000704780F8F010704710781B
:100C3C0001280AD002281ED0F8B902291DD101239F
:100C4C0013700023009A1360704703290AD0009A8E
:100C5C001268262A11DC501CDDF800C0CCF800000C
:100C6C009954704700211170009A12689954019B95
:100C7C0001221A70704700231370704702F1FF3C79
:100C8C00062A02D00023184606E04FF0050CF9E7BF
:100C9C00CA5C104480B201339C45F9DA02E0C0B260
:100CAC00184480B2030AFAD1C0B2C0F10F00C0B22E
:100CBC007047000070B582B00646092A0DD0154663
:100CCC00006838B1294909F090FD0A22294630689C
:100CDC0009F009FE002002B070BD0C460B78022B07
:100CEC0002D10B7A032B32D0306810B1204909F0B5
:100CFC008DFD0020EFE7E218517803F108026A44F9
:100D0C0002F8081C0133052BF5DD06226946304636
:100D1C00FFF7B4FF0546E479A04224D03068A0B1B7
:100D2C00144909F062FD0F2D13D9102229463068A1
:100D3C0009F0EEFD1049306809F057FD0F2C0DD964
:100D4C0010222146306809F0E7FD0020C3E700239C
:100D5C00D9E70A49306809F048FDE6E707493068E9
:100D6C0009F043FDECE70120B5E700BF94BE000895
:100D7C00ACBE0008C0BE0008E4BE0008E0BE00081F
:100D8C002DE9F04704460D4617469846D0F8E0008A
:100D9C0005F084FA0646206800284BD0102229461C
:100DAC0009F0B6FDDFF8C4A05146206809F01DFD1E
:100DBC0010223946206809F0ABFDDFF8B4904946A3
:100DCC00206809F012FD10224146206809F0A0FDB0
:100DDC002849206809F009FD102294F8D8102068E1
:100DEC0009F096FD5146206809F0FFFC102294F89A
:100DFC00D910206809F08CFD4946206809F0F5FCF3
:100E0C00102294F8DA10206809F082FD1A49206843
:100E1C0009F0EBFCD4F8DC100A22711A206809F0F6
:100E2C006CFD1649206809F0E0FC0A22C8212068F4
:100E3C0009F07CFD94F8D8C0AC4502D00020BDE888
:100E4C00F08794F8D930BB4201D00020F7E794F832
:100E5C00DA30434501D00020F1E7D4F8DC00301A39
:100E6C00C72801D90020EAE70120E8E7F0BE000816
:100E7C00F8BE000800BF000810BF00081CBF000827
:100E8C0010B5044680F8D81080F8D92080F8DA30F4
:100E9C00D0F8E00005F002FAC4F8DC0010BD002325
:100EAC0080F8D430C0F8CC307047002380F8D530AF
:100EBC00C0F8D0307047000038B50446D0F8E000D8
:100ECC0005F0ECF9054694F8D4302BB1D4F8CC30BD
:100EDC00C31AB3F57A7F09D294F8D5302BB1D4F874
:100EEC00D030ED1AB5F57A7F0AD238BD2046FFF71F
:100EFC00D6FF20680028EFD0064909F087FCEBE705
:100F0C002046FFF7D2FF20680028EED0024909F0F6
:100F1C007DFCEAE728BF000844BF0008A1F13000BF
:100F2C00C0B209280AD9A1F14103DBB2052B06D9BD
:100F3C00A1F16103DBB2052B04D9002070473739CE
:100F4C00C8B270475739C8B270472DE9F047804690
:100F5C000F4691460846FFF7D3F80546002426466F
:100F6C0000E00234AC4212DA631CAB42F9DA395DB0
:100F7C004046FFF7D3FF8246631CF95C4046FFF7FF
:100F8C00CDFF40EA0A1009F806000136E9E73046C1
:100F9C00BDE8F08710B51C46FFF7D7FF206010BDE9
:100FAC0070B5044600258560C560056145618561A5
:100FBC00C561056245628562C562282632462946AE
:100FCC0030300AF0BBFC3246294604F158000AF0D6
:100FDC00B5FC3222294604F194000AF0AFFCC4F8A7
:100FEC008050C4F88450C4F88850C4F88C5084F8ED
:100FFC00905084F89150C4F8C85070BD002380F80C
:10100C00923080F89330704710B5044601211920B6
:10101C0009F06EFE0121192009F0DEFE2046FFF7D3
:10102C00BFFF2046FFF7EAFF10BD000010B50446D5
:10103C00F02918D0B1B9006810B1294909F0E6FBC4
:10104C00D4F8E830002B44D0206810B1254909F0C1
:10105C00DDFBD4F8E80002F077F8206810B12249E3
:10106C0009F0D4FB10BDD0F8E8000028FAD001F04C
:10107C00BCFF0028F6D00021D4F8E80001F0E6FF10
:10108C000021D4F8E80001F0E5FF0021D4F8E800D5
:10109C0001F0E4FF0021D4F8E80001F0E3FF0121A6
:1010AC00D4F8E80001F0CEFF206810B10F4909F028
:1010BC00ADFB206810B10E4909F0A8FBD4F8E8008C
:1010CC0001F086FE20680028CCD00A4909F09EFB6E
:1010DC00C8E720680028C5D0074909F097FBC1E78D
:1010EC00E4BF00080CC0000848C0000860BF00083E
:1010FC0084BF0008C4BF000870C0000810B50446C7
:10110C00F02920D000293CD1006810B11D4909F00C
:10111C007DFB00212046FFF787FD206810B11A499E
:10112C0009F074FBD4F8E80038B1012101F065FF37
:10113C00206810B1154909F069FBD4F8E40000B33C
:10114C0001F0F1F81DE0006810B1114909F05EFBE7
:10115C0001212046FFF768FD206810B10D4909F008
:10116C0055FBD4F8E80038B1002101F046FF2068A7
:10117C0010B1094909F04AFBD4F8E40008B101F0B8
:10118C00B1F810BD14C1000828C100084CC10008FA
:10119C0094C00008A8C00008CCC0000810B50446D4
:1011AC00F02910D071B9D0F8E80058B101F04EFF19
:1011BC00D4F8E80001F044FFB0B3206810B129491D
:1011CC0009F024FB10BDD0F8E8000028FAD001F09B
:1011DC000CFF0028F6D00021D4F8E80001F032FF13
:1011EC000021D4F8E80001F035FF0021D4F8E80024
:1011FC0001F034FF0021D4F8E80001F033FF0021A6
:10120C00D4F8E80001F0F9FE0121D4F8E80001F06F
:10121C001DFFD4F8E80001F0EAFE0028D2D1D4F882
:10122C00E80001F0D5FDCDE7D4F8E80001F010FF9F
:10123C000028C2D1D4F8E80001F00EFF0028BCD180
:10124C00D4F8E80001F00CFF0028B6D1D4F8E8007F
:10125C0001F07AFF20680028AFD0034909F0D6FAD4
:10126C00ABE700BFC8C1000894C1000810B5044624
:10127C00F02910D071B9D0F8E80058B101F0EEFEA9
:10128C00D4F8E80001F0DCFEB0B3206810B12949B5
:10129C0009F0BCFA10BDD0F8E8000028FAD001F033
:1012AC00A4FE0028F6D00021D4F8E80001F0CAFE14
:1012BC000021D4F8E80001F0C9FE0021D4F8E800C0
:1012CC0001F0C8FE0021D4F8E80001F0CBFE0021AB
:1012DC00D4F8E80001F091FE0121D4F8E80001F007
:1012EC00BDFED4F8E80001F082FE0028D2D1D4F87B
:1012FC00E80001F06DFDCDE7D4F8E80001F0A4FEA4
:10130C000028C2D1D4F8E80001F0A2FE0028BCD11C
:10131C00D4F8E80001F0A4FE0028B6D1D4F8E80017
:10132C0001F012FF20680028AFD0034909F06EFAD3
:10133C00ABE700BF14C20008E0C1000810B50446BA
:10134C00F02910D071B9D0F8E80058B101F082FE44
:10135C00D4F8E80001F074FEB0B3206810B129494C
:10136C0009F054FA10BDD0F8E8000028FAD001F0CA
:10137C003CFE0028F6D00021D4F8E80001F062FE13
:10138C000021D4F8E80001F061FE0021D4F8E80057
:10139C0001F064FE0021D4F8E80001F063FE0021A6
:1013AC00D4F8E80001F029FE0121D4F8E80001F09E
:1013BC0051FED4F8E80001F01AFE0028D2D1D4F87E
:1013CC00E80001F005FDCDE7D4F8E80001F03CFEA3
:1013DC000028C2D1D4F8E80001F03EFE0028BCD1B0
:1013EC00D4F8E80001F03CFE0028B6D1D4F8E800AF
:1013FC0001F0AAFE20680028AFD0034909F006FAD4
:10140C00ABE700BF64C2000830C2000810B5044648
:10141C00F0290AD041B9D0F8E80028B101F022FE39
:10142C00D4F8E80001F090FE10BDD0F8E8000028D8
:10143C00FAD001F0DAFD0028F6D00021D4F8E8004B
:10144C0001F000FE0021D4F8E80001F0FFFD0021BE
:10145C00D4F8E80001F0FEFD0021D4F8E80001F01A
:10146C00FDFD0021D4F8E80001F0C7FD0121D4F8FE
:10147C00E80001F0F7FDD4F8E80001F0B8FD002811
:10148C00D2D1D4F8E80001F0A3FCCDE738B504467E
:10149C000D46006848B11A4909F0A7F9202D0CD067
:1014AC0085B91849206809F0B1F9D4F8E80028B3D7
:1014BC00202D15D0ADB9A02513E01349206809F0F3
:1014CC00A5F9F2E71149206809F08FF91022294695
:1014DC00206809F01DFA0E49206809F097F9E4E735
:1014EC00FE25294601F0C0FD206838B1094909F0F4
:1014FC007CF90A222946206809F00EFA38BD00BF93
:10150C0080C20008A4C2000898C20008B0C200083B
:10151C00BCC20008C0C2000810B50446F0290FD0A8
:10152C0011BB006810B1114909F070F9D4F8E4004E
:10153C00D0B100F0D6FD00212046FFF775FB13E07B
:10154C00006810B10A4909F061F9D4F8E4305BB1D4
:10155C0001212046FFF768FBD4F8E40000F0E3FE1D
:10156C00D4F8E40000F03AFE10BD00BFE8C2000859
:10157C00D4C2000810B50446F0290FD011BB006886
:10158C0010B1114909F042F9D4F8E400D0B100F0DF
:10159C00A8FD00212046FFF747FB13E0006810B1BF
:1015AC000A4909F033F9D4F8E4305BB10121204643
:1015BC00FFF73AFBD4F8E40000F0B5FED4F8E400F1
:1015CC0000F0E4FD10BD00BF20C300080CC30008F0
:1015DC0010B50446F0290FD011BB006810B11149A9
:1015EC0009F014F9D4F8E400D0B100F087FD002123
:1015FC002046FFF719FB13E0006810B10A4909F007
:10160C0005F9D4F8E4305BB101212046FFF70CFB5F
:10161C00D4F8E40000F087FED4F8E40000F010FEEB
:10162C0010BD00BF58C3000844C3000810B50446E1
:10163C00F0290FD011BB006810B1114909F0E6F880
:10164C00D4F8E400D0B100F059FD00212046FFF79A
:10165C00EBFA13E0006810B10A4909F0D7F8D4F896
:10166C00E4305BB101212046FFF7DEFAD4F8E40048
:10167C0000F059FED4F8E40000F00AFE10BD00BFE3
:10168C0090C300087CC3000810B5044671BB006809
:10169C0010B11B4909F0BAF8D4F8E40028B100F0F5
:1016AC002DFDD4F8E40000F01CFDD4F8E830B3B103
:1016BC00206810B1134909F0A9F8D4F8E80001F03A
:1016CC0043FD206810B1104909F0A0F82046FFF73F
:1016DC008DFA206860B10D4909F098F808E020688F
:1016EC000028F3D00A4909F091F8EFE7F02900D06F
:1016FC0010BD00680028FBD0064909F087F8F7E711
:10170C00E4BF00080CC0000848C00008B8C30008BB
:10171C0070C00008D0C30008082A40F321812DE9CD
:10172C00F04104464B788F78CD780E79702B66D1CA
:10173C00A02D0CD006D8802D09D0902D07D04FF0BD
:10174C00000808E0B02D02D04FF0000803E0F02EA6
:10175C0057D04FF0000833462A4639462046FFF74B
:10176C000FFB38B1B8F1000F4ED0206810B17D4995
:10177C0009F04CF833462A4639462046FFF780FBE1
:10178C00206808B3784909F041F87849206809F0D5
:10179C002CF8702D7BD051D8402D6ED045D8202DF3
:1017AC0061D0302D64D0102D40F0858070492068B8
:1017BC0009F02CF86F49206809F017F82068F02E12
:1017CC007ED06D4909F022F8702D00F0AD8000F24A
:1017DC008280402D00F09E8074D8202D00F09080E7
:1017EC00302D00F09280102D40F0B2803146204612
:1017FC00FFF71CFC206810B1604909F007F8BDE840
:10180C00F0814FF00108A6E720680028F7D05C496A
:10181C0008F0EBFF0A224FF4FA61206809F06DF82A
:10182C005849206808F0F2FFE9E7502D2AD0602DC6
:10183C0041D15549206808F0E9FFBBE7A02D30D015
:10184C0008D8802D28D0902D35D15049206808F02B
:10185C00DDFFAFE7B02D29D0FF2D2CD14C492068EE
:10186C0008F0D4FFA6E74B49206808F0CFFFA1E7AA
:10187C004949206808F0CAFF9CE74849206808F0ED
:10188C00C5FF97E74649206808F0C0FF92E7454935
:10189C00206808F0BBFF8DE74349206808F0B6FFCD
:1018AC0088E74249206808F0B1FF83E74049206887
:1018BC0008F0ACFF7EE73F49206808F0A7FF79E706
:1018CC003D497FE7502D2AD0602D41D1314620462D
:1018DC00FFF79CFD8EE7A02D30D008D9B02D32D06B
:1018EC00FF2D35D131462046FFF7CEFE82E7802D05
:1018FC001FD0902D2CD131462046FFF73BFE79E7C7
:10190C0031462046FFF7FAFB74E731462046FFF7D5
:10191C0045FC6FE731462046FFF7A8FC6AE73146E5
:10192C002046FFF70BFD65E731462046FFF7AEFD7D
:10193C0060E731462046FFF7EFFD5BE73146204676
:10194C00FFF746FE56E731462046FFF76FFE51E79C
:10195C00206800283FF44EAF184908F057FF49E7BC
:10196C00704700BF2CC4000868C4000884C4000879
:10197C0094C4000820C50008E8C300084CC5000842
:10198C00F4C3000820C40008D0C40008F0C4000848
:10199C000CC50008A0C40008ACC40008B8C40008FA
:1019AC00C4C40008D8C40008E8C40008F8C400087F
:1019BC0000C5000818C50008E0C300082CC50008C5
:1019CC00082A00DC704770B505460E461446FFF732
:1019DC0071F900B970BD224631462846FFF79CFECE
:1019EC00F8E710B586B004464068D8B103681B69A7
:1019FC00984788B1606803685B69984704F18C0369
:101A0C0004F191020192009304F1580304F1930242
:101A1C00C1B22046FFF70BF994F8903023B994F833
:101A2C00913073B906B010BD04F1800304F10802C3
:101A3C0004F130012046FFF7ADFA002384F8903012
:101A4C00EDE704F1840304F11C0204F15801204673
:101A5C00FFF7A0FAD4F88430072B03D0002384F8C6
:101A6C009130DFE702238DF80C30002308E05A1C7C
:101A7C002344197F02F118036B4403F80C1C134622
:101A8C00062BF4DD03238DF81430092203A920461C
:101A9C00FFF796FFE2E70022026042608260C260BC
:101AAC00026142618261C26180F8202080F82120AD
:101ABC00426282620021C1620263704790F820305A
:101ACC006BB310B5044690F821302BBB406808B1BD
:101ADC0000F074FC206820B104F0B0FB206804F026
:101AEC00B9FB206908B100F057FD606808B100F03F
:101AFC0065FC606930B1012101F075FA0121606962
:101B0C0001F07EFA012384F82130206828B104F01A
:101B1C00C5FB60620023A36210BD0020F9E770478B
:101B2C0090F82130DBB110B50446406940B100217A
:101B3C0001F059FA606901F007FB606901F032F9B4
:101B4C00606808B100F03AFC206820B104F08EFB0C
:101B5C00206804F097FB002384F8213010BD7047F7
:101B6C0010B50446C06820B1FFF73BFFE068FFF7F3
:101B7C00A3F910BD10B50446806820B100F04EFFEB
:101B8C00A06800F053FE10BD38B5436983B104461C
:101B9C00C06838B1FFF745F80546606901F029FACD
:101BAC00854206D1606902F0E7FC606904F03AFAFC
:101BBC0038BD2946606901F01EFAF3E710B50446FA
:101BCC00006920B100F04AFD206900F007FD10BD4E
:101BDC0010B50446406820B100F05AFC606800F073
:101BEC00A2FA10BD38B50368ABB104464368ABB17B
:101BFC008368ABB1C368ABB10069A8B16369ABB121
:101C0C0000F0F0FC054698B9206998B100F0ECFCA6
:101C1C0010B9012500E00025284638BD0025FBE75A
:101C2C000025F9E70025F7E70025F5E70025F3E7A0
:101C3C000025F1E70125EFE781617047C16170472D
:101C4C0010B50446806938B106224FF4E13108F032
:101C5C0033FD642009F018F9E06938B106224FF41D
:101C6C00165108F029FD642009F00EF910BD38B5A5
:101C7C0005461C2006F0E9FF0446A96904F078FA31
:101C8C002C60204604F082FA38BD38B50446282072
:101C9C0006F0DBFF0546A269216800F0BAF9656021
:101CAC00284600F0CBF938BD38B50446382006F08C
:101CBC00CCFF0546A3696268216800F0E3FCA560CF
:101CCC00284600F0FFFCA06800F030FD38BD38B5A8
:101CDC000446F42006F0B9FF0546E369A2692168C1
:101CEC00FEF732FFE5602846FFF78EF938BD38B5B0
:101CFC000446202006F0A9FF0546A269216800F0E1
:101D0C0027FC2561284600F047FC38BD30B583B070
:101D1C000446B02006F099FF0546A3690093A3681A
:101D2C006268216800F09DFE6561284600F000FFA6
:101D3C00E06820B1A36862696168FEF76BFF03B0CD
:101D4C0030BD10B50446FFF77BFF2046FFF78FFF31
:101D5C002046FFF79AFF2046FFF7A6FF2046FFF725
:101D6C00B6FF2046FFF7C3FF2046FFF7CFFF10BD9D
:101D7C0010B50446006880B104F090FA636A83429F
:101D8C000BD2C01AFEF706FB02460B460020034995
:101D9C00FEF7A4FCFEF78AFDE06210BD000059407E
:101DAC0010B50446006838B104F078FA236BC31AF6
:101DBC00B3F57A7F00D3206310BD38B504460068B4
:101DCC00E0B104F06BFA05462046FFF7D1FF204640
:101DDC00FFF7C6FE2046FFF7CDFE2046FFF7D4FEE8
:101DEC002046FFF7EBFE2046FFF7F2FE2046FFF7FA
:101DFC00D7FF6562A36A0133A36238BD0025E3E710
:101E0C0008B590F8203013B190F8213003B908BD13
:101E1C00FFF7D3FFFBE703686BB143686BB18368D3
:101E2C006BB1C3686BB103696BB143690BB1012032
:101E3C00704700207047002070470020704700203A
:101E4C0070470020704700207047000010B5044612
:101E5C00806910B1074908F0D9FC606908B101F03C
:101E6C00F5F9606808B100F0A9FAA06808B100F0B3
:101E7C009FFC10BD68C5000810B50446806910B100
:101E8C000B4908F0C3FC2046FFF7E0FF2046FFF7A4
:101E9C00A9FE28B1A06910B1064908F0B7FC10BD25
:101EAC00A0690028FBD0044908F0B0FCF7E700BF9C
:101EBC0080C50008A0C50008BCC5000810B50446C4
:101ECC00806910B1074908F0A1FC2046FFF728FEF5
:101EDC002046FFF7BBFF204600F018F82046FFF71E
:101EEC00EDFD10BDD4C5000810B50446FFF7C4FFC6
:101EFC002046FFF777FE00B110BD2046FFF7DEFF4E
:101F0C00FAE708B5FFF7F0FF08BD000090F82030A5
:101F1C0003B1704710B50446FFF713FF2046FFF7D7
:101F2C007AFF18B1012384F8203010BD02492046F5
:101F3C00FFF7E7FFF9E700BFF8C5000808B503682D
:101F4C00984708BD10B50446836813B103220146B7
:101F5C009847204610BD0000014B1878704700BF11
:101F6C00680300200A4B1B78834200D1704710B5E0
:101F7C000446074B18700749074808F036FC24B193
:101F8C000649054808F042FC10BD0549F9E700BFB9
:101F9C006803002048C600084C02002014C6000844
:101FAC001CC60008014B1878704700BF670300205F
:101FBC00014B1878704700BF6603002008B5FFF787
:101FCC00F1FF034B1870FFF7F3FF024B187008BDBD
:101FDC006503002064030020032A05D8DFE802F023
:101FEC000206080400230360002070470160FBE731
:101FFC000B680360F8E7012A02D1016000207047EA
:10200C0008B5FFF7E9FF002008BD08B5FFF7D6FFBC
:10201C0008BD10B40024047044708470C470047142
:10202C0044718460C46004614461047644768476AF
:10203C00C47604770162426210BC704710B5044646
:10204C000121C52008F054FE0121C02008F050FEEB
:10205C000121C42008F04CFE0121C12008F048FEEB
:10206C000121C92008F044FE0121082008F040FE9F
:10207C000121C82008F03CFE0121C72008F038FEE1
:10208C000021C52008F0A8FE0021C02008F0A4FE05
:10209C000021C42008F0A0FE0021C12008F09CFE05
:1020AC000021C92008F098FE0121082008F094FEB8
:1020BC000021C82008F090FE0021C72008F08CFEFB
:1020CC00002323706370A370E37023716371A360AA
:1020DC00E3602361636123766376A376E3762377EB
:1020EC0010BD037803B9704710B504460021C52014
:1020FC0008F072FE00232370A36010BD437803B96F
:10210C00704710B504460021C42008F065FE00237A
:10211C006370E36010BD08B58176082008F05CFEA2
:10212C0008BD00797047704738B504460D46006A03
:10213C0004F0B4F81DB1012D06D0002038BD237871
:10214C003BB1A368C01AF9E7637823B1E368C01AFE
:10215C00F4E70020F2E70020F0E710B50C46FFF79B
:10216C00E3FF012C01D9002010BD41F2707398429D
:10217C0094BF00200120F7E708B5017621B10121B9
:10218C00C02008F029FE08BD0021F9E710B504466F
:10219C0003780BB1027E8AB10BB9237E9BB100216F
:1021AC002046FFF7E9FF0121C52008F015FE0123A9
:1021BC002370206A04F072F8A06010BD006A04F06D
:1021CC006DF8A060F9E70121C52008F005FE012398
:1021DC002370206A04F062F8A060EEE710B50446A4
:1021EC0003780BB1027E8AB90BB9237E9BB901210E
:1021FC002046FFF7C1FF0121C52008F0EDFD0123AA
:10220C002370206A04F04AF8A06010BD006A04F044
:10221C0045F8A060F9E70121C52008F0DDFD012398
:10222C002370206A04F03AF8A060EEE708B5417616
:10223C0021B10121C12008F0CFFD08BD0021F9E733
:10224C0010B5044643780BB1427E8AB90BB9637E54
:10225C009BB901212046FFF7E9FF0121C42008F0BA
:10226C00BBFD01236370206A04F018F8E06010BD18
:10227C00006A04F013F8E060F9E70121C42008F0CB
:10228C00ABFD01236370206A04F008F8E060EEE710
:10229C0010B5044643780BB1427E8AB10BB9637E0C
:1022AC009BB100212046FFF7C1FF0121C42008F09B
:1022BC0093FD01236370206A03F0F0FFE06010BD12
:1022CC00006A03F0EBFFE060F9E70121C42008F09D
:1022DC0083FD01236370206A03F0E0FFE060EEE70A
:1022EC0041717047837803B1704710B504460121E2
:1022FC00C92008F071FD0121A1702046FFF7F0FF05
:10230C0010BD10B504460121FFF705FF2046FFF76D
:10231C00E9FF10BD10B504460021FFF7FCFE204676
:10232C00FFF7E0FF10BD837803B9704710B5044682
:10233C000021C92008F050FD0021A1702046FFF7B4
:10234C00CFFF10BD08B5C176C82008F029FC08BD28
:10235C00C37803B1704710B50446FF21FFF7F2FFB5
:10236C000123E37010BDC37803B9704710B5044660
:10237C000021FFF7E7FF0023E37010BD08B50177DC
:10238C00C72008F00DFC08BD08B5037933B901234B
:10239C000371017F19B9FF21FFF7F0FF08BDFFF7AB
:1023AC00EDFFFBE7037903B9704710B50446002134
:1023BC00FFF7E4FF0023237110BD000010B50446A5
:1023CC00406A10B10D4908F021FA2046FFF789FE4A
:1023DC002046FFF793FE2046FFF7A5FF2046FFF7A8
:1023EC00C2FF2046FFF7DEFF642008F04DFD606A57
:1023FC0010B1034908F00AFA10BD00BF60C600080E
:10240C0088C6000808B50177037903B908BDFFF742
:10241C00B5FFFBE770B582B005460E46FF22009271
:10242C0000231946304608F05BFBC4B20F4B1B78F7
:10243C00A34218D0686A80B10D4908F0D6F90A2277
:10244C003146686A08F064FA0A49686A08F0CDF9FE
:10245C000A222146686A08F05FFA21462846FFF7EF
:10246C00D1FF024B1C7002B070BD00BF7003002086
:10247C00B0C60008D4C6000810B504460021FFF70A
:10248C006CFE00B110BD01212046FFF766FEF9E796
:10249C0038B50446006A002832D003F0FFFE05462A
:1024AC00234B1B68EB1AB3F57A7F1FD3606AD8B144
:1024BC0023780BB96378BBB11E4908F096F9606AB2
:1024CC002378FBB11C4908F090F91C49606A08F0AC
:1024DC008CF9606A6378BBB1174908F086F92378E8
:1024EC00A3B9606A08F08AF9114B1D602046FFF70A
:1024FC00C3FF20B1606A10B1114908F087F938BDEB
:10250C000025CDE70F49DEE70E49E6E70E49606A84
:10251C0008F06BF9A168691A01EB81010A224900E4
:10252C00606A08F0EAF90949606A08F05EF9D8E7D0
:10253C006C030020F0C60008E0C6000804C70008C1
:10254C0020C70008E8C600080CC700081CC7000814
:10255C0010B400240470447044608460C460016151
:10256C0042610476C46110BC7047000010B504468B
:10257C00084B45F255521A6006225A6040F6B832A2
:10258C009A604CF6CC421A60006903F087FEE0605A
:10259C0010BD00BF0030004038B50446FFF7E6FF21
:1025AC00002525706570206903F078FE6060A560D9
:1025BC00E56001232376206903F070FEE06138BDED
:1025CC0010B50446044B4AF6AA221A60006903F0BF
:1025DC0065FEE06010BD00BF0030004008B5FFF79D
:1025EC00EFFF08BD007870474078704700230370F8
:1025FC00836070470120704738B50446006903F0CA
:10260C004DFE05462046FFF7F5FF10B165602378B7
:10261C0003B938BD2046FFF7E9FFFAE70123437001
:10262C00704710B5044601230370006903F036FEB1
:10263C00A0602046FFF7F2FF10BD10B504460069FC
:10264C0003F02CFE6368C01AB0F5FA6F01D323783F
:10265C0003B110BD2046FFF7E4FFFAE7037E03B990
:10266C00704710B50446006903F018FEE369C31AFD
:10267C00632B00D9E0612046FFF7DFFF2046FFF710
:10268C00BBFF10BD30B40025057045708570C5705A
:10269C00057145718571C5718560057345738573C9
:1026AC00C573057441618261C361056245628562CF
:1026BC00C56205634563024B186030BC704700BFB0
:1026CC007403002010B504460221142008F010FBFE
:1026DC000221132008F00CFB142008F0A5FB003895
:1026EC0018BF01202070132008F09EFB003818BF83
:1026FC00012060702378DBB2A3706378DBB2E370E7
:10270C00002323716371A371E371A360237363735B
:10271C002278D2B2A2736278D2B2E27323742362AB
:10272C006362A362E3622363636310BD10B588B078
:10273C00194B186DB0F1FF3F00D01420002300930B
:10274C00019302930393154B0093154B0393154B75
:10275C0002930222694608F063F96846FFF7F2FB20
:10276C000D4BD86CB0F1FF3F00D0132004AC00230C
:10277C000493059306930793084B0493084B079314
:10278C00084B06930222214608F04AF92046FFF72F
:10279C00D9FB08B010BD00BF70EC0008712900080F
:1027AC00491F0008032000080078704740787047E4
:1027BC000023037043708370C37003714371837380
:1027CC00C373704710B50446142008F02DFB003875
:1027DC0018BF0120237883420ED020702378DBB2FF
:1027EC00A373E06940B1064907F0FFFFE069237865
:1027FC001BB1044908F00AF810BD0349FAE700BF01
:10280C0064C7000850C7000858C7000810B5044634
:10281C00132008F009FB003818BF012063788342AD
:10282C0003D060706378DBB2E37310BD10B504465F
:10283C00FFF7C8FF2046FFF7E9FF10BD00238371A7
:10284C00C3710373037443738360704738B50D46CB
:10285C001446406903F022FD2B68C01AA04234BF15
:10286C000020012038BD10B50C46406903F016FD60
:10287C00206010BD38B5044600F1200564222946BD
:10288C00FFF7E4FF00B938BD29462046FFF7EBFF00
:10289C00F9E738B5044669B1012383710125257325
:1028AC002574606903F0FAFCA06065732046FFF79D
:1028BC00E1FF38BD0123C371F0E7F8B504461420DD
:1028CC0008F0B2FA0646071E18BF0127132008F0BD
:1028DC00ABFA051E18BF0125A378BB4200D006B980
:1028EC00E378A378BB4217D023790133DBB2237191
:1028FC002379022B12D92378BB4205D02770237879
:10290C00DBB2A373237813B90023237106E00121F2
:10291C002046FFF7BEFFF7E700232371E378AB42B5
:10292C0017D063790133DBB263716379022B12D94F
:10293C006378AB4205D065706378DBB2E373637880
:10294C0013B90023637106E000212046FFF7A1FFB5
:10295C00F7E700236371A770E570F8BD08B5FFF7C2
:10296C00ACFF08BD08B5034B186808B1FFF7F6FFBC
:10297C0008BD00BF7403002038B5044600F12805DB
:10298C004FF47A722946FFF761FF00B938BD29462A
:10299C002046FFF768FFF9E738B5044600F12C052F
:1029AC0064222946FFF752FF00B938BD294620465C
:1029BC00FFF759FFF9E7000038B5044600F1300580
:1029CC0064222946FFF742FF40B1E06910B1044987
:1029DC0007F01CFF29462046FFF745FF38BD00BF16
:1029EC0088C7000808B502234373FFF7E5FF08BD4D
:1029FC0038B5044600F1340564222946FFF726FF5A
:102A0C0040B1E06910B1044907F000FF29462046A7
:102A1C00FFF729FF38BD00BFA0C7000838B5044632
:102A2C00406903F03BFC637B012B06D0022B11D0D9
:102A3C0013B92046FFF7A0FF38BD05462046FFF727
:102A4C00ABFFA368E81A3128F6D9A1792046FFF725
:102A5C00C9FFF1E72046FFF7CBFF2046FFF7EEFE5C
:102A6C00EAE710B40024047044708470C4700471DC
:102A7C00447184718460047344738473C4730474E8
:102A8C0044748474C474047544758461C4610462B0
:102A9C0080F82440846280F82C4080F82D4080F827
:102AAC002E40046344638463C46380F840404464F0
:102ABC0080F84840C4640465446580F8584080F848
:102ACC00594080F85A4080F85B4080F85C4080F8B0
:102ADC005D4080F85E400466446680F86840C466D9
:102AEC00046780F874408467C46780F88040C0F83D
:102AFC008440C0F8884080F88C40C0F89040C0F802
:102B0C00944080F8984080F8994080F89A4080F87A
:102B1C009B4080F89C4080F89D40C0F8A010C0F805
:102B2C00A420C0F8A830019BC0F8AC3010BC704792
:102B3C000023037043708370C370037343738373F8
:102B4C00C373037443748374C374037543758361D3
:102B5C00C361036280F82C3080F82D3080F82E3061
:102B6C000363436383638360C363837180F8403082
:102B7C000365436580F8583080F8593080F85A3036
:102B8C0080F85B3080F85C3080F85D3080F85E3027
:102B9C000366436680F86830C366036780F8743058
:102BAC008367C36780F88030C0F88430C0F8883001
:102BBC0080F88C30C0F89030C0F8943080F89830A1
:102BCC0080F8993080F89A3080F89B3080F89C30EF
:102BDC0080F89D307047000070B504464378002B98
:102BEC0042D1D0F8AC0010B15E4907F00FFED4F81A
:102BFC00A80048B3FFF7D8FD0546D4F8A800FFF7A6
:102C0C00D5FD0646D4F8AC00B8B1574907F0EDFD38
:102C1C00D4F8AC007DB3554907F0E7FD5449D4F81E
:102C2C00AC0007F0E2FDD4F8AC0036B34F4907F026
:102C3C00DCFDD4F8AC0007F0E1FD002D36D0F6B188
:102C4C00002D58D0002E7DD101252575D4F8A0007B
:102C5C0003F024FBA061E0616575D4F8AC0048B1C9
:102C6C00444907F0D3FD05E0D0F8AC0010B142495F
:102C7C0007F0CCFD70BD4149CEE74049D7E7D4F809
:102C8C00AC0010B13E4907F0C1FD02252575D4F802
:102C9C00A00003F003FBA061E0616575D4F8AC0003
:102CAC000028E7D0374907F0B1FDE3E7002EC7D184
:102CBC00D4F8AC0010B1344907F0A8FDD4F8A40046
:102CCC0040B10121FFF727FAD4F8AC0010B12F491D
:102CDC0007F09CFD01252575D4F8A00003F0DEFA61
:102CEC00A061E0616575D4F8AC000028C2D0284919
:102CFC0007F08CFDBEE7D4F8AC0010B1254907F005
:102D0C0085FDD4F8A40060B1FFF70DFB0121D4F8C8
:102D1C00A400FFF700FAD4F8AC0010B11E4907F07C
:102D2C0075FD01252575D4F8A00003F0B7FAA06154
:102D3C00E0616575D4F8AC0000289BD0174907F00A
:102D4C0065FD97E7D4F8AC0010B1154907F05EFDAE
:102D5C0002252575D4F8A00003F0A0FAA061E0616B
:102D6C00657587E710C8000858C8000850C70008E8
:102D7C0078C80008B8CA0008C0C7000858C70008BF
:102D8C0080C80008D0C80008B8C9000810CA0008DC
:102D9C0044CA0008FCC8000858C9000888C90008C3
:102DAC0078CA000810B50446002303758361C3611B
:102DBC004375D0F8A40008B1FFF7B5FAD4F8AC000D
:102DCC0010B1024907F022FD10BD00BFE0CA000897
:102DDC0038B5837803B138BD044601258570D0F829
:102DEC00A00003F05BFAA0600023E363A57184F8F4
:102DFC004050D4F8A00003F051FA6064D4F8A0005D
:102E0C0003F04CFAA06394F858303BB1D4F8AC0002
:102E1C000028E0D0074907F0F9FCDCE7D4F8A00063
:102E2C0003F03CFA20650023636584F8585084F85D
:102E3C005930EBE7F8CA000838B50446037B002B81
:102E4C005FD10025A37B03B10135E37B03B10135D1
:102E5C00237C03B10135364B1B68AB4244D0D4F80C
:102E6C00AC0000283ED0334907F0BFFCD4F8AC00CE
:102E7C00237B002B47D0304907F0B7FC2F49D4F8FF
:102E8C00AC0007F0B2FCD4F8AC00A37B002B3CD018
:102E9C00294907F0AAFC2A49D4F8AC0007F0A5FC94
:102EAC00D4F8AC00E37B93B3234907F09EFC25498F
:102EBC00D4F8AC0007F099FCD4F8AC00237C43B3F5
:102ECC001D4907F092FC2049D4F8AC0007F08DFCAA
:102EDC000A222946D4F8AC0007F001FDD4F8AC0066
:102EEC0007F08CFC124B1D60ADB1012D15D1237B6D
:102EFC00ABB9A37BABB9E37BABB9237CABB90020FB
:102F0C000AE001259EE71149B6E71049C1E70F49D0
:102F1C00CBE70E49D5E7002038BD0520FCE70120A2
:102F2C00FAE70220F8E70320F6E70420F4E700BFF5
:102F3C00000000200CCB000814C6000828CB0008A9
:102F4C0034CB000844CB000854CB00081CC6000846
:102F5C0008B5012380F82E30002380F85A3080F811
:102F6C005B3080F85C3080F85D3080F85E3080F843
:102F7C00993080F89A3080F89B3080F89C3080F83B
:102F8C009D300366C3668367C0F88430C0F8903008
:102F9C0003738373C37303744374D0F8AC0010B120
:102FAC00014907F033FC08BDD0CB0008002380F8A2
:102FBC005A3080F85B3080F85C3080F85D3080F8F7
:102FCC005E3080F8993080F89A3080F89B3080F829
:102FDC009C3080F89D300366C3668367C0F88430EC
:102FEC00C0F8903070470170704740787047807817
:102FFC007047C0787047C1707047417170470000CE
:10300C0038B504460171D0F8AC0070B10D460849D2
:10301C0007F0EBFBD4F8AC0045B1064907F0E5FB33
:10302C000549D4F8AC0007F0F1FB38BD0349F5E7CE
:10303C0028CC000814C60008F8CD00081CC60008EF
:10304C00007B704701737047807B704781737047BA
:10305C00C07B7047C1737047007C70470174704728
:10306C00407C70474174704710B504468174D0F8A9
:10307C00AC0040B1134907F0B8FB0A22A17CD4F88C
:10308C00AC0007F049FCD4F8A400A0B1FFF749F854
:10309C0088B1D4F8AC0040B10B4907F0A6FB0A226A
:1030AC00A17CD4F8AC0007F037FCA17CD4F8A400C8
:1030BC00FFF7B0F905E0D4F8AC0010B1034907F004
:1030CC00A5FB10BD50CC000878CC0008BCCC000887
:1030DC0038B504460D4600238374D0F8AC0040B1DB
:1030EC00154907F082FBD4F8AC00D5B1294607F09E
:1030FC008DFBD4F8A400B0B1FFF713F898B1D4F855
:10310C00AC0040B10D4907F070FBD4F8AC008DB1A8
:10311C00294607F07BFB0021D4F8A400FFF77AF9CD
:10312C0007E00749E3E7D4F8AC0010B1054907F014
:10313C006DFB38BD024DEBE714CD000848CD0008FF
:10314C000CCD000890CD000810B50446D0F8AC00AA
:10315C0010B1274907F05AFB0023A370A37184F820
:10316C00403084F82C30D4F8AC0010B1214907F071
:10317C004DFBD4F8A40080B1FFF7F5F8D4F8A40007
:10318C00FFF710F9D4F8AC0038B11B4907F03EFB3F
:10319C001A49D4F8AC0007F039FB2046FFF7D8FEEB
:1031AC00D4F8AC0010B1164907F030FB1549204695
:1031BC00FFF78EFF00236370D4F8AC0070B1124996
:1031CC0007F013FBD4F8AC00637873B10F4907F028
:1031DC000CFB0F49D4F8AC0007F018FBD4F8AC008A
:1031EC0010B10C4907F012FB10BD0B49EFE700BF03
:1031FC00E4CD000804CE000824CE000854CE00080C
:10320C0090CE0008C0CE0008D4CE000814C600082A
:10321C00F8CE000818CF00081CC600080139C9B246
:10322C00012903D9807C10B9FF207047FF2070471B
:10323C00034602782AB1407828B1DB7823B100200C
:10324C0070470020704700207047000008B500222E
:10325C00027342738273C273027442740149FFF7A2
:10326C0037FF08BD54CF0008837903B9704710B5F8
:10327C000446D0F8A00003F011F8A368C01AE0636C
:10328C00034B984200D810BD2046FFF75DFFFAE7CC
:10329C00BFD4010090F8583003B9704710B50446FC
:1032AC00D0F8A00002F0FAFF236DC01A6065054B40
:1032BC00984205D9012384F85930002384F85830FA
:1032CC0010BD00BFBFD4010010B5044690F82C30DF
:1032DC0080F82D30FFF7B0FD84F82C002046FFF766
:1032EC0065FE236B01332363D4F8A00002F0D6FFF4
:1032FC006063D4F8AC00A0B10A2294F82D1007F04A
:10330C00EEFA0849D4F8AC0007F06FFA0A2294F8E8
:10331C002C10D4F8AC0007F0E2FAD4F8AC0007F0AB
:10332C006DFA10BD20CC000838B5D0F8A43013B31A
:10333C00044690F8243063B9D0F8AC0010B11E49A3
:10334C0007F064FAD4F8A400FEF7DBFF012384F83D
:10335C002430D4F8A80078B1FFF726FA0546D4F843
:10336C00A00002F09BFF154B1B68C31AC72B01D999
:10337C00124B186015B938BD0025F0E7D4F8A4003D
:10338C00FEF7D1FFD4F8AC0010B10D4907F03EFAAE
:10339C0002252575D4F8A00002F080FFE061657568
:1033AC00002384F82430D4F8AC000028E3D005497D
:1033BC0007F02CFADFE700BF64CF0008DC03002025
:1033CC0090CF0008BCCF000838B50446D0F8A00058
:1033DC0002F064FF0546104B1B7843B9D4F8AC00DF
:1033EC0010B10E4907F012FA0B4B01221A70E36967
:1033FC00EB1A632B0ED903232375E5616375002348
:10340C00054A137084F82430D4F8AC0010B1044988
:10341C0007F0FCF938BD00BFD8030020E4CF00084A
:10342C0010D00008F8B5D0F8A43083B3044690F857
:10343C00243093B9D0F8AC0010B12D4907F0E6F95F
:10344C00D4F8AC0010B12B4907F0E0F9D4F8A40083
:10345C00FEF760FF012384F82430D4F8A00002F0BA
:10346C001DFF0546E669861B234B1B68C31A312BCF
:10347C000BD96FF0090106FB01F101F5FA67D4F8DD
:10348C00AC0000B127B91C4B1D60C72E0FD8F8BD7E
:10349C001A4907F0AAF90A223946D4F8AC0007F009
:1034AC002CFA1749D4F8AC0007F0B0F9EBE7D4F8D4
:1034BC00A400FEF738FFD4F8AC0010B1114907F0A6
:1034CC00A5F90123637000232375637584F82430F8
:1034DC00094A1360D4F8AC000028D8D00A4907F088
:1034EC0095F90A49D4F8AC0007F090F9CFE700BF82
:1034FC0038D0000874D00008D4030020B4D00008E1
:10350C00D4D00008E4D0000804D1000834D100085D
:10351C0038B50446D0F8A00002F0C0FEE36EC31A22
:10352C00C72B3CD90546D4F8A40050B1FEF710FFC8
:10353C00D4F8A400FEF736FFE37813B96379002BB7
:10354C0038D0D4F8A80078B1FFF72EF960B1D4F8D0
:10355C00A40008B1FEF7E7FE012384F85B30D4F831
:10356C00A00002F09BFEE066164B1B68EB1AB3F54D
:10357C00FA7F13D3D4F8AC0070B1134907F035F9C6
:10358C00D4F8AC00E378D3B1104907F02EF9104908
:10359C00D4F8AC0007F03AF90A4B1D6038BDD4F8EA
:1035AC00A4000028FAD0FEF7D3FED4F8A400FEF74E
:1035BC00BAFEF3E7D4F8A400FEF7A3FEC1E7054971
:1035CC00E3E700BFD003002068D1000814C6000850
:1035DC00BCC200081CC6000870B50446D0F8A00098
:1035EC0002F05CFE05463F4B1B68C31AB3F5FA7F2D
:1035FC0007D3D4F8AC0010B13B4907F007F9394BAD
:10360C001D60E66EAE1BC72E3CD9D4F8A40050B199
:10361C00FEF79EFED4F8A400FEF7C4FEE37813B9BF
:10362C006379002B57D0D4F8A80078B1FFF7BEF817
:10363C0060B1D4F8A40008B1FEF775FE002384F83D
:10364C005B30D4F8A00002F029FEE066274B1B6823
:10365C00EB1AB3F5FA7F14D3D4F8AC0078B1244943
:10366C0007F0C3F8D4F8AC00E378002B38D021492C
:10367C0007F0BBF82049D4F8AC0007F0C7F81B4B97
:10368C001D6070BDD4F8A40028B1FEF761FED4F81B
:10369C00A400FEF748FE194B1B68EB1A632BF0D9FC
:1036AC0006EB86067600C6F5FA66D4F8AC0000B1D7
:1036BC0016B9124B1D60E4E7114907F096F80A227F
:1036CC003146D4F8AC0007F018F90E49D4F8AC0028
:1036DC0007F09CF8EDE7D4F8A400FEF71BFEA2E778
:1036EC000949C5E7CC030020ACD10008C403002075
:1036FC0000D2000814C60008BCC20008C803002091
:10370C00E0D10008D4D000081CC6000810B504464F
:10371C0090F89A3043B194F85B303BB3012B28D12D
:10372C002046FFF759FF24E0012380F89A30D0F8A7
:10373C00A00002F0B3FDE066002384F85B30D4F8FF
:10374C00A40058B1FEF704FED4F8A400FEF72AFE3C
:10375C00D4F8AC0010B1074907F058F8D4F8AC0015
:10376C000028D8D0044907F051F8D4E72046FFF7D9
:10377C00CFFE10BD44D2000878D2000838B50446FC
:10378C00FFF756FD78B1124B1B7843B9D4F8AC0057
:10379C0010B1104907F03AF80D4B01221A7020466F
:1037AC00FFF7B4FF38BDD4F8A00002F077FD054652
:1037BC00094B1B68C31AB3F5FA7FF3D3D4F8AC00EA
:1037CC0010B1064907F022F8034B1D60EAE700BF71
:1037DC00F8030020F8D20008FC030020D0D2000827
:1037EC0070B50446D0F8A00002F058FDA36FC31AC0
:1037FC00C72B52D90546D4F8A40008B3E37813B903
:10380C006379002B70D03C4BA3FB05235B094FF471
:10381C00967202FB1353C72B69D8D4F8A400FEF799
:10382C00A2FDD4F8A46094F82C102046FFF7F6FC07
:10383C0001463046FEF7EEFDD4F8A400FEF7A4FDD9
:10384C00D4F8A80078B1FEF7AFFF60B1D4F8A400AB
:10385C0008B1FEF768FD012384F85C30D4F8A000B1
:10386C0002F01CFDA067254B1B68EB1AB3F5FA7F21
:10387C0012D3D4F8AC0068B1214906F0B6FF0A2285
:10388C00A17CD4F8AC0007F043F81E49D4F8AC0086
:10389C0006F0BCFF194B1D6070BDD4F8A4000028C5
:1038AC00FAD0154AA2FB031252094FF4967101FB90
:1038BC001232C72A15D8FEF756FDD4F8A45094F846
:1038CC002C102046FFF7AAFC01462846FEF7A2FD65
:1038DC00D4F8A400FEF758FDD4F8A400FEF723FD9D
:1038EC00DAE7FEF735FDE8E7FEF70BFD8BE7D4F8DA
:1038FC00A400FEF72DFD94E7B5814E1BC0030020FC
:10390C0020D30008BCC2000870B50446D0F8A00053
:10391C0002F0C4FC0546A36FC31AC72B7FD9D4F899
:10392C00A40088B3E3781BB96379002B00F0BE8048
:10393C00884BA3FB05235B094FF4967202FB1353D0
:10394C00C72B00F2FD80D4F8A400FEF70CFDD4F8D0
:10395C00A46094F82C102046FFF760FC014630461A
:10396C00FEF758FDD4F8A400FEF70EFD7A4B1B6849
:10397C00EB1AB3F5FA7F07D3D4F8AC0010B1774942
:10398C0006F033FF744B1D60D4F8A800002800F03B
:10399C00DC80FEF70BFF0646714B1B68EB1AC72B3E
:1039AC000FD9D4F8AC0050B16E4906F01EFFD4F814
:1039BC00AC00002E00F0CB806B4906F027FF684B63
:1039CC001D6096B1D4F8A40008B1FEF7ACFC02233C
:1039DC0084F85C30D4F8A00002F060FCA067D4F846
:1039EC00AC0010B1614906F011FF614B1B68EB1A7A
:1039FC00B3F5FA7F12D3D4F8AC0068B15D4906F088
:103A0C00F4FE0A22A17CD4F8AC0006F081FF5A49DE
:103A1C00D4F8AC0006F0FAFE554B1D6070BDD4F81E
:103A2C00A400F0B14B4AA2FB031252094FF4967159
:103A3C0001FB1232C72A27D8FEF795FCD4F8A460F4
:103A4C0094F82C102046FFF7E9FB01463046FEF7B0
:103A5C00E1FCD4F8A400FEF797FCD4F8A400FEF720
:103A6C0062FC464B1B68EB1A632BD7D9A36FEB1A7E
:103A7C0003EB83035B00C3F5FA66D4F8AC0000B12A
:103A8C002EB93E4B1D60C9E7FEF762FCD6E73C49F8
:103A9C0006F0ABFE0A223146D4F8AC0006F02DFF3E
:103AAC003849D4F8AC0006F0B1FEEAE7FEF732FC78
:103ABC00354B1B68EB1AB3F5FA7FFFF439AFD4F82A
:103ACC00AC00002837D0314906F08FFE3049D4F8CD
:103ADC00AC0006F08AFED4F8AC60C92007F0A4F95B
:103AEC0008B32C49304606F080FE2B49D4F8AC00C4
:103AFC0006F07BFED4F8AC60082007F095F9A0B175
:103B0C002449304606F071FE2449D4F8AC0006F086
:103B1C006CFED4F8AC60D4F8A80040B1FEF746FEB9
:103B2C0060B1114904E01E49DCE71D49E9E71D4974
:103B3C00304606F06BFE144B1D60F9E61A49F7E7A8
:103B4C00D4F8A400FEF704FC01E7002624E716498C
:103B5C0033E700BFB5814E1BB403002020D400080E
:103B6C00B00300204CD4000850C7000874D40008DF
:103B7C00AC030020CCD40008BCC20008BC0300205D
:103B8C007CD300089CD30008B8030020C8D30008DD
:103B9C00F8D3000870D3000804D4000810D400082F
:103BAC0078D3000818C5000858C7000870B504463B
:103BBC00D0F8A00002F072FB0546A36FC31AC72B06
:103BCC003AD9D4F8A40018B3E3781BB96379002B65
:103BDC0000F0A980584BA3FB05235B094FF49672A8
:103BEC0002FB1353C72B00F2A180D4F8A400FEF7FC
:103BFC00BAFBD4F8A45094F82C102046FFF70EFB17
:103C0C0001462846FEF706FCD4F8A400FEF7BCFBE0
:103C1C00D4F8A80078B1FEF7C7FD60B1D4F8A400C1
:103C2C0008B1FEF780FB012384F85C30D4F8A000C7
:103C3C0002F034FBA06770BDD4F8A400002849D072
:103C4C003D4AA2FB031252094FF4967101FB12324A
:103C5C00C72A52D8FEF787FBD4F8A46094F82C102E
:103C6C002046FFF7DBFA01463046FEF7D3FBD4F8CB
:103C7C00A400FEF789FBD4F8A400FEF754FB2F4BED
:103C8C001B68EB1A632B25D9D4F8AC0000B32C4974
:103C9C0006F0ABFD2B49D4F8AC0006F0A6FDD4F829
:103CAC00AC60C92007F0C0F850B32749304606F085
:103CBC009CFD2649D4F8AC0006F097FDD4F8AC6016
:103CCC00082007F0B1F8E8B11F49304606F09EFD18
:103CDC001A4B1D601E4B1B68EB1A632BABD9A36FE1
:103CEC00EB1A03EB83035B00C3F5FA66D4F8AC0064
:103CFC0000B14EB9164B1D609DE7FEF729FBABE7F3
:103D0C001449D3E71349E0E7134906F06EFD0A2284
:103D1C003146D4F8AC0006F0F0FD1049D4F8AC00F4
:103D2C0006F074FDE6E7FEF7ECFA53E7D4F8A400CE
:103D3C00FEF70EFB5DE700BFB5814E1BA80300200C
:103D4C001CD50008F8D3000870D3000804D4000870
:103D5C00A403002078D300087CD300089CD300086F
:103D6C0010B5044690F89B3053B194F85C30012B9D
:103D7C0045D0022B47D013B92046FFF731FD10BDBB
:103D8C00012380F89B30D0F8A00002F087FAA067DE
:103D9C00002384F85C30D4F8A40058B1FEF7E3FAA1
:103DAC00D4F8A400FEF7FEFAD4F8AC0010B1184910
:103DBC0006F02CFDA37C7BB9FF23A374D4F8AC00D4
:103DCC0010B1144906F022FDD4F8AC000028CCD078
:103DDC00114906F01BFDC8E7D4F8AC000028F3D05D
:103DEC000E4906F002FD0A22A17CD4F8AC0006F0C4
:103DFC008FFD0B49D4F8AC0006F008FDE4E7204633
:103E0C00FFF782FDBBE72046FFF7D0FEB7E700BF08
:103E1C004CD5000880D50008D8D50008B0D50008CE
:103E2C00BCC2000838B50446FFF702FA78B1124B51
:103E3C001B7843B9D4F8AC0010B1104906F0E6FC7D
:103E4C000D4B01221A702046FFF78AFF38BDD4F8BB
:103E5C00A00002F023FA0546094B1B68C31AB3F500
:103E6C00FA7FF3D3D4F8AC0010B1064906F0CEFCBF
:103E7C00034B1D60EAE700BFF003002040D60008AA
:103E8C00F403002018D60008F8B50446D0F8A000BA
:103E9C0002F004FA0546D4F88460861BC72E49D973
:103EAC00D4F8A40088B3E3781BB96379002B00F035
:103EBC0094804E4BA3FB05235B094FF4967202FBD7
:103ECC001353632B00F28C80D4F8A400FEF740FA55
:103EDC00D4F8A46094F82C102046FFF79FF9014603
:103EEC003046FEF797FAD4F8A400FEF74DFA404B93
:103EFC001B68EB1AB3F57A7F07D3D4F8AC0010B17A
:103F0C003C4906F072FC3A4B1D60D4F8A80080B115
:103F1C00FEF74AFC68B1D4F8A40008B1FEF703FA26
:103F2C00012384F85D30D4F8A00002F0B7F9C4F88E
:103F3C008400F8BDD4F8A40060B32C4BA3FB06237B
:103F4C005B094FF4967202FB1363632B33D8FEF7B5
:103F5C00FFF9D4F8A47094F82C102046FFF75EF902
:103F6C0001463846FEF756FAD4F8A400FEF70CFAD0
:103F7C00214B1B68EB1AB3F57A7F07D3D4F8AC004E
:103F8C0010B11E4906F031FC1B4B1D60D4F8A40087
:103F9C00FEF7C9F91A4B1B68EB1A632BC9D906EB50
:103FAC0086067600C6F5FA66D4F8AC0000B12EB9D8
:103FBC00134B1D60BDE7FEF7D6F9CAE7114906F0B1
:103FCC0014FC0A223146D4F8AC0006F096FC0E49DB
:103FDC00D4F8AC0006F01AFCEAE7FEF792F968E7B1
:103FEC00D4F8A400FEF7BFF972E700BFB5814E1BF1
:103FFC0098030020E8D60008A00300206CD6000827
:10400C009C03002090D60008B0D60008F8B50446F2
:10401C00D0F8A00002F042F90546D4F88460861B63
:10402C00C72E49D9D4F8A40088B3E3781BB96379B7
:10403C00002B00F093804D4BA3FB05235B094FF441
:10404C00967202FB1353632B00F28B80D4F8A400FE
:10405C00FEF77EF9D4F8A46094F82C102046FFF7F4
:10406C00DDF801463046FEF7D5F9D4F8A400FEF78A
:10407C008BF93F4B1B68EB1AB3F5FA7F07D3D4F8D7
:10408C00AC0010B13B4906F0B0FB394B1D60D4F8C5
:10409C00A80080B1FEF78AFB68B1D4F8A40008B17F
:1040AC00FEF741F9002384F85D30D4F8A00002F04B
:1040BC00F5F8C4F88400F8BDD4F8A40058B32B4B21
:1040CC00A3FB06235B094FF4967202FB1363632B6D
:1040DC0032D8FEF73DF9D4F8A47094F82C10204691
:1040EC00FFF79CF801463846FEF794F9D4F8A40083
:1040FC00FEF74AF9204B1B68EB1AC72B07D9D4F8EB
:10410C00AC0010B11D4906F070FB1B4B1D60D4F8C0
:10411C00A400FEF708F91A4B1B68EB1A632BCAD9DB
:10412C0006EB86067600C6F5FA66D4F8AC0000B14C
:10413C002EB9134B1D60BEE7FEF715F9CBE71149FD
:10414C0006F053FB0A223146D4F8AC0006F0D5FB3E
:10415C000D49D4F8AC0006F059FBEAE7FEF7DAF8A3
:10416C0069E7D4F8A400FEF7FEF873E7B5814E1B9F
:10417C008C03002038D70008940300200CD70008CB
:10418C009003002090D60008B0D6000810B5044665
:10419C0090F89C3043B194F85D30CBB1012B1AD11F
:1041AC002046FFF733FF16E0012380F89C30D0F84F
:1041BC00A00002F073F8C4F88400002384F85D308A
:1041CC00D4F8AC000028E6D0034906F01FFBE2E768
:1041DC002046FFF759FE10BD64D7000838B50446D9
:1041EC00FFF726F878B1124B1B7843B9D4F8AC0022
:1041FC0010B1104906F00AFB0D4B01221A70204633
:10420C00FFF7C4FF38BDD4F8A00002F047F805460C
:10421C00094B1B68C31AB3F5FA7FF3D3D4F8AC007F
:10422C0010B1064906F0F2FA034B1D60EAE700BF35
:10423C00E8030020BCD70008EC03002094D700084A
:10424C00F8B50446D0F8A00002F028F80646D4F8D9
:10425C009050451BC72D3DD9D4F8A40028B3E37862
:10426C0013B96379002B6DD0D4F8A400FEF770F865
:10427C00D4F8A45094F82C102046FEF7CFFF01463A
:10428C002846FEF7C7F8D4F8A400FEF77DF82F4BAC
:10429C001B68F31AB3F57A7F07D3D4F8AC0010B1CE
:1042AC002B4906F0A2FA294B1E60D4F8A80080B165
:1042BC00FEF77AFA68B1D4F8A40008B1FEF733F827
:1042CC00012384F85E30D4F8A00001F0E7FFC4F8B5
:1042DC009000F8BDD4F8A400A0B1FEF739F8D4F8DA
:1042EC00A47094F82C102046FEF798FF014638462F
:1042FC00FEF790F8D4F8A400FEF746F8D4F8A40022
:10430C00FEF711F8134B1B68F31A632BE1D905EB7D
:10431C0085056D00C5F5FA65D4F8AC0000B115B98A
:10432C000C4B1E60D5E70C4906F05FFA0A222946B1
:10433C00D4F8AC0006F0E1FA0849D4F8AC0006F069
:10434C0065FAEDE7FDF7DDFF8EE700BF8403002083
:10435C0008D8000888030020E8D70008B0D6000869
:10436C00F8B50446D0F8A00001F098FF0546D4F843
:10437C009060861BC72E3DD9D4F8A40028B3E378EF
:10438C0013B96379002B7BD0D4F8A400FDF7E0FFC0
:10439C00D4F8A46094F82C102046FEF73FFF014699
:1043AC003046FEF737F8D4F8A400FDF7EDFF364B96
:1043BC001B68EB1AB3F57A7F07D3D4F8AC0010B1B5
:1043CC00324906F012FA304B1D60D4F8A80080B1C7
:1043DC00FEF7ECF968B1D4F8A40008B1FDF7A3FF1F
:1043EC00002384F85E30D4F8A00001F057FFC4F825
:1043FC009000F8BDD4F8A40010B3FDF7A9FFD4F8D1
:10440C00A47094F82C102046FEF708FF014638469D
:10441C00FEF700F8D4F8A400FDF7B6FF1C4B1B68A0
:10442C00EB1AB3F57A7F07D3D4F8AC0010B1194965
:10443C0006F0DBF9164B1D60D4F8A400FDF773FFF2
:10444C00154B1B68EB1A632BD3D906EB860676004B
:10445C00C6F5FA66D4F8AC0000B116B90E4B1D6067
:10446C00C7E70E4906F0C1F90A223146D4F8AC0070
:10447C0006F043FA0A49D4F8AC0006F0C7F9EDE7A8
:10448C00FDF748FF80E700BF7803002008D800083C
:10449C00800300202CD800087C030020E8D70008FB
:1044AC00B0D6000810B5044690F89D3043B194F88E
:1044BC005E30CBB1012B1AD12046FFF751FF16E02D
:1044CC00012380F89D30D0F8A00001F0E7FEC4F87D
:1044DC009000002384F85E30D4F8AC000028E6D0BD
:1044EC00034906F093F9E2E72046FFF7A9FE10BD59
:1044FC0050D8000838B50446FEF79AFE78B1124B36
:10450C001B7843B9D4F8AC0010B1104906F07EF911
:10451C000D4B01221A702046FFF7C4FF38BDD4F8AA
:10452C00A00001F0BBFE0546094B1B68C31AB3F58E
:10453C00FA7FF3D3D4F8AC0010B1064906F066F953
:10454C00034B1D60EAE700BFE0030020A4D800087D
:10455C00E40300207CD8000810B50446D0F8A00075
:10456C0001F09CFEA369C01A41F26F73984294BF8C
:10457C000020012010BD0000F8B50446D0F8A000C2
:10458C0001F08CFE0546784B1B68C31AB3F57A7F95
:10459C0001D3754B18602378002B00F0DA80734B35
:1045AC001B68EB1AB3F57A7F24D3D4F8AC00F8B1BE
:1045BC0063780BB12379DBB16D4906F016F9D4F8A9
:1045CC00AC002379002B71D06A4906F00EF96A49C8
:1045DC00D4F8AC0006F009F9D4F8AC006378002BE1
:1045EC0066D0644906F001F9D4F8AC0006F006F97F
:1045FC005E4B1D602379002B5CD16378002B40F05F
:10460C00A880237D002B00F09B80022B00F0A28061
:10461C00032B00F0A380012B02D12046FEF784FE71
:10462C002046FFF799FF40B1D4F8AC0010B15349C4
:10463C0006F0ECF82046FEF7B5FB514B1B68EB1A65
:10464C0041F28732934240F28480D4F8AC0050B3EC
:10465C004C4906F0CAF8A1690A22691AD4F8AC00D0
:10466C0006F04BF9484E3146D4F8AC0006F0BDF8D4
:10467C000A2241F27071D4F8AC0006F03EF93146D2
:10468C00D4F8AC0006F0B1F8D4F8AC602046FFF7D3
:10469C0063FF002866D03D49304606F0A6F8D4F8F2
:1046AC00AC0006F0ABF8364B1D6052E038498CE795
:1046BC00374997E7374B1B682BB3D4F8A00001F0B0
:1046CC00EDFD0546334B1E68861B334B1B68C31A26
:1046DC00312B0AD906EB86014900C1F5FA67D4F8EB
:1046EC00AC0000B1EFB92C4B1D60C72E31D90023A3
:1046FC0023716370274A1360D4F8AC0048B3274980
:10470C0006F084F825E0D4F8A00001F0C7FD214B99
:10471C001860D4F8AC000028CFD0214906F076F808
:10472C00CBE7204906F061F80A223946D4F8AC00F0
:10473C0006F0E3F81C49D4F8AC0006F067F8D2E7B1
:10474C00D4F8AC0010B1194906F060F82046FEF719
:10475C0043FAF8BD2046FEF737FE61E72046FEF728
:10476C0061FE5DE7124997E7240400202004002035
:10477C00CCD8000814C60008F8D80008ECD90008FA
:10478C001404002004DA000824DA000864CB0008C2
:10479C001CC600081C0400201804002068D900085E
:1047AC0004D9000848D90008D4D00008B0D90008B2
:1047BC0068CB0008F8B504469DF81870D0F8A40032
:1047CC0080B116461D4671B1FDF78CFD76B1D4F85B
:1047DC00A400FDF7BDFD35B36FB9D4F8A400FDF707
:1047EC00D3FDA7B9F8BDFDF79EFDEFE7D4F8A40003
:1047FC00FDF7B9FDEFE7D4F8A45094F82C1020463F
:10480C00FEF70CFD01462846FDF704FEE5E7D4F85B
:10481C00A45094F82C102046FEF700FD01462846C3
:10482C00FDF7F8FDDEE7D4F8A400FDF7BBFDD9E7F2
:10483C00D0F838C0A1EB0C0C944501D20020704785
:10484C0080F85A30816301207047F8B504460E4653
:10485C0090F8487047B1C36CCB1A312B25D9002383
:10486C0080F848303846F8BD1546FDF775FB2DB17C
:10487C00D4F8A80010B1FDF799FF40B9BDB9D4F830
:10488C00A800B0B1FDF790FF08B90127EAE70123B2
:10489C0084F84830E664D4F8A40008B1FDF743FD71
:1048AC0085F00100FDF75EFBDCE70027DAE72F4619
:1048BC00D8E70127D6E738B50446D0F8A00001F0B8
:1048CC00EDFC0546012201462046FFF7BEFFC8B1AC
:1048DC00636CEB1AB3F5FA7F00D36564D4F8A400CB
:1048EC0008B1FDF70EFDD4F8A80058B1FDF75CFF38
:1048FC0040B1D4F8A40008B1FDF715FD012384F8EC
:10490C005A30A56338BD2DE9F04383B004460E46FA
:10491C00174698469DF82C90D0F8A00001F0BEFCEC
:10492C00054626BB636CEB1AB3F5FA7F06D3D4F8B5
:10493C00AC0010B10E9905F069FF65649DF8283044
:10494C00009343463A4631462046FFF733FFD4F8EE
:10495C00A40010B14946FDF7DEFB9DF834300C9AEB
:10496C0029462046FFF764FF03B0BDE8F08389F0C9
:10497C00010201462046FFF768FF0028D2D1F3E779
:10498C0000B587B0074B04935C230393A0230293D9
:10499C0001220192002100910B46FFF7B4FF07B0F2
:1049AC005DF804FB38DA000800B587B0074B0493B8
:1049BC005D230393F02302930121019100230093C3
:1049CC000A46FFF7A0FF07B05DF804FB54DA0008B5
:1049DC0000B587B0074B04935E230393C82302935F
:1049EC000121019100910B460022FFF78CFF07B0CB
:1049FC005DF804FB70DA000800B587B0074B049330
:104A0C005F2303933223029301210191002300932E
:104A1C000A46FFF778FF07B05DF804FB8CDA000854
:104A2C0000B587B0084B0493602303934FF496733F
:104A3C0002930121019100910B460022FFF763FFC5
:104A4C0007B05DF804FB00BFA8DA000800B587B01A
:104A5C00074B0493612303933223029301210191A9
:104A6C00002300930A46FFF74EFF07B05DF804FBE6
:104A7C00C4DA00082DE9F04F85B004460E461746FF
:104A8C0003939DF83CB09DF844909DF84C809DF8A4
:104A9C0050A0D0F8A00001F001FC0546AEBB636C41
:104AAC00EB1AB3F5FA7F06D3D4F8AC0010B1129917
:104ABC0005F0ACFE65649DF838300093039B3A46D4
:104ACC0031462046FFF776FED4F8A40010B15946C3
:104ADC00FDF721FBB8F1000F05D0D4F8A80010B1F8
:104AEC00FDF762FED0B9BAF1000F05D0D4F8A800DA
:104AFC0010B1FDF75BFE40BB4B46109A2946204691
:104B0C00FFF796FE05B0BDE8F08F8BF00102014671
:104B1C002046FFF79AFE0028C1D1F3E7D4F8AC0089
:104B2C0010B1154905F072FED4F8A40048B1FDF798
:104B3C00FAFBD4F8A400FDF716FCD4F8A400FDF79A
:104B4C0031FC84F85A90A563DCE7D4F8AC0010B1C2
:104B5C000A4905F05BFED4F8A40048B1FDF7E3FB6D
:104B6C00D4F8A400FDF7FFFBD4F8A400FDF71AFC61
:104B7C0084F85A90A563C5E7E0DA00082CDB00083E
:104B8C0000B589B00123069300210591074B0493CE
:104B9C005B23039328230293019100910B460A4651
:104BAC00FFF768FF09B05DF804FB00BF78DB000875
:104BBC002DE9F04F85B004460E46029203939DF802
:104BCC003CA09DF844809DF84C709DF850909DF849
:104BDC0054B0D0F8A00001F061FB05469EBB636C9D
:104BEC00EB1AB3F5FA7F06D3D4F8AC0010B11299D6
:104BFC0005F00CFE65649DF838300093039B029A17
:104C0C0031462046FFF7D6FDD4F8A40010B151462A
:104C1C00FDF781FA2FB1D4F8A80010B1FDF7C4FD4F
:104C2C00D0B9B9F1000F05D0D4F8A80010B1FDF738
:104C3C00BDFDE8B94346109A29462046FFF7F8FD1A
:104C4C0005B0BDE8F08F8AF0010201462046FFF75F
:104C5C00FCFD0028C3D1F3E7BBF1000F04D0D4F85E
:104C6C00A40008B1FDF75FFB84F85A80A563E7E761
:104C7C00BBF1000F04D0D4F8A40008B1FDF753FB2E
:104C8C0084F85A80A563DBE700B589B00121079150
:104C9C00069100220592074B0493162303934FF4BD
:104CAC00C8730293019200910B46FFF781FF09B084
:104CBC005DF804FB94DB000800B589B00123079371
:104CCC00069300210591074A049217220392782239
:104CDC000292019100930A46FFF76AFF09B05DF852
:104CEC0004FB00BFB0DB000800B589B001210791BF
:104CFC00002206920591074B04932A2303934FF449
:104D0C00FA730293019100921346FFF751FF09B019
:104D1C005DF804FBCCDB000800B589B001210791DC
:104D2C00069100220592074B04933123039340F61E
:104D3C00C4130293019200910B46FFF739FF09B09F
:104D4C005DF804FBE8DB000800B589B00121079190
:104D5C00002206920591074B0493442303934FF4CE
:104D6C00C8730293019100910B46FFF721FF09B024
:104D7C005DF804FB04DC000800B589B00121079143
:104D8C00069100220592074B0493562303934FF48C
:104D9C0096730293019200921346FFF709FF09B034
:104DAC005DF804FB20DC000800B589B001210791F7
:104DBC00069100220592074B04935A2303934FF458
:104DCC0016730293019200921346FFF7F1FE09B09D
:104DDC005DF804FB3CDC000800B589B001210791AB
:104DEC00002206920591074B0493039140F6C413DD
:104DFC000293019100910B46FFF7DAFE09B05DF8C2
:104E0C0004FB00BF58DC000810B586B00C9C049461
:104E1C009DF82C4003940A9C02949DF82440019424
:104E2C009DF820400094FFF76EFD06B010BD000009
:104E3C0000B587B0074B0493022303933C230293E2
:104E4C0000210191012200921346FFF7DDFF07B00C
:104E5C005DF804FB74DC000800B587B0074B0493C5
:104E6C00032303938C2302930021019101230093CC
:104E7C000A46FFF7C9FF07B05DF804FB90DC000899
:104E8C0000B587B0074B0493042303933C23029390
:104E9C0000220192012100910B46FFF7B5FF07B0EC
:104EAC005DF804FBACDC000800B587B0084B04933C
:104EBC0005230393642302930023019301210091A2
:104ECC000B460A46FFF7A0FF07B05DF804FB00BFD6
:104EDC00C8DC000800B587B0074B04930623039386
:104EEC00C823029300220192012100910B46FFF787
:104EFC008BFF07B05DF804FBE4DC000800B587B05D
:104F0C00084B049307230393642302930023019318
:104F1C00012100910B460A46FFF776FF07B05DF8BA
:104F2C0004FB00BF00DD000800B587B0074B0493FD
:104F3C0008230393C82302930022019201210091BC
:104F4C000B46FFF761FF07B05DF804FB1CDD0008A2
:104F5C0000B587B0084B0493092303936423029391
:104F6C0000230193012100910B460A46FFF74CFFE9
:104F7C0007B05DF804FB00BF38DD000800B587B052
:104F8C00084B04930A2303933C23029300230193BD
:104F9C00012100910B460A46FFF736FF07B05DF87A
:104FAC0004FB00BF54DD000800B587B0084B049328
:104FBC000B2303934FF47A73029300210191012286
:104FCC0000921346FFF720FF07B05DF804FB00BF0B
:104FDC0070DD000800B587B0074B04930C230393D6
:104FEC00C823029300230193009301221146FFF77B
:104FFC000BFF07B05DF804FB8CDD000800B587B033
:10500C00074B04930D230393642302930022019214
:10501C00012100910B46FFF7F7FE07B05DF804FB8A
:10502C00A8DD000800B587B0074B04930E2303934B
:10503C003223029300230193009301221146FFF7C0
:10504C00E3FE07B05DF804FBC4DD000800B587B0D3
:10505C00074B04930F230393C8230293002201925E
:10506C00012100910B46FFF7CFFE07B05DF804FB62
:10507C00E0DD000800B587B0074B049310230393C1
:10508C00C823029300220192012100910B46FFF7E5
:10509C00BBFE07B05DF804FBFCDD000800B587B073
:1050AC00074B0493112303933223029300220192A2
:1050BC00012100910B46FFF7A7FE07B05DF804FB3A
:1050CC0018DE000800B587B0074B04931223039336
:1050DC006423029300220192009213460121FFF7F0
:1050EC0093FE07B05DF804FB34DE000800B587B012
:1050FC00074B049313230393322302930022019250
:10510C00012100910B46FFF77FFE07B05DF804FB11
:10511C0050DE000800B587B0074B049314230393AB
:10512C006423029300220192009213460121FFF79F
:10513C006BFE07B05DF804FB6CDE000800B587B0B1
:10514C00084B0493152303934FF4C8730293002365
:10515C000193009301221146FFF756FE07B05DF84C
:10516C0004FB00BF88DE000800B587B0074B049332
:10517C0018230393502302930122019200921346A9
:10518C000021FFF741FE07B05DF804FBA4DE000828
:10519C0000B587B0074B049319230393C8230293DC
:1051AC000121019100910B460022FFF72DFE07B063
:1051BC005DF804FBC0DE000800B587B0074B049314
:1051CC001A230393642302930121019100910B464E
:1051DC000A46FFF719FE07B05DF804FBDCDE000899
:1051EC0000B587B0074B04931B230393C82302938A
:1051FC000121019100910B460022FFF705FE07B03B
:10520C005DF804FBF8DE000800B587B0074B04938B
:10521C001C230393642302930121019100910B46FB
:10522C000A46FFF7F1FD07B05DF804FB14DF000838
:10523C0000B587B0074B04931D230393C823029337
:10524C000121019100910B460022FFF7DDFD07B013
:10525C005DF804FB30DF000800B587B0084B049301
:10526C001E2303934FF47A7302930122019200924E
:10527C0013460021FFF7C8FD07B05DF804FB00BF23
:10528C004CDF000800B587B0084B04931F23039331
:10529C004FF4967302930121019100910B46002269
:1052AC00FFF7B2FD07B05DF804FB00BF68DF000834
:1052BC0000B587B0074B049320230393322302934A
:1052CC0001210191002300930A46FFF79DFD07B0D1
:1052DC005DF804FB84DF000800B587B0074B04932E
:1052EC0021230393642302930121019100910B4626
:1052FC000022FFF789FD07B05DF804FBA0DF000872
:10530C0000B587B0074B04932223039332230293F7
:10531C0001210191002300930A46FFF775FD07B0A8
:10532C005DF804FBBCDF000800B587B0074B0493A5
:10533C0023230393962302930121019100910B46A1
:10534C000022FFF761FD07B05DF804FBD8DF000811
:10535C0000B587B0074B0493242303936423029373
:10536C0001210191002300930A46FFF74DFD07B080
:10537C005DF804FBF4DF000800B587B0084B04931C
:10538C00252303934FF4967302930121019100910D
:10539C000B460A46FFF738FD07B05DF804FB00BF6B
:1053AC0010E0000800B587B0084B04932623039344
:1053BC004FF496730293012101910022009213463F
:1053CC00FFF722FD07B05DF804FB00BF2CE00008DE
:1053DC0000B587B0074B0493272303933223029322
:1053EC000121019100910B460022FFF70DFD07B042
:1053FC005DF804FB48E0000800B587B0074B049348
:10540C00282303936423029301210191002200922B
:10541C001346FFF7F9FC07B05DF804FB64E00008E5
:10542C0000B587B0074B04932923039332230293CF
:10543C000121019100910B460022FFF7E5FC07B01A
:10544C005DF804FB80E0000800B587B0074B0493BF
:10545C002B230393C82302930021019100910B4647
:10546C000122FFF7D1FC07B05DF804FB9CE00008BB
:10547C0000B587B0074B04932C230393C8230293E6
:10548C0000230193009301221146FFF7BDFC07B0E6
:10549C005DF804FBB8E0000800B587B0074B049337
:1054AC002D230393C8230293002201920121009122
:1054BC000B46FFF7A9FC07B05DF804FBD4E000082D
:1054CC0000B587B0074B04932E230393322302932A
:1054DC0000230193009301221146FFF795FC07B0BE
:1054EC005DF804FBF0E0000800B587B0084B0493AE
:1054FC002F2303934FF49673029300220192012100
:10550C0000910B46FFF780FC07B05DF804FB00BF71
:10551C000CE1000800B587B0074B049330230393CC
:10552C003223029300230193009301221146FFF7CB
:10553C006BFC07B05DF804FB28E1000800B587B0F0
:10554C00074B049332230393C82302930123019343
:10555C00009300221146FFF757FC07B05DF804FBDF
:10556C0044E1000800B587B0074B04933323039341
:10557C00642302930121019100910B460A46FFF727
:10558C0043FC07B05DF804FB60E1000800B587B090
:10559C00074B049334230393C823029301210191F5
:1055AC0000910B460022FFF72FFC07B05DF804FBBF
:1055BC007CE1000800B587B0074B049335230393B7
:1055CC00642302930121019100910B460A46FFF7D7
:1055DC001BFC07B05DF804FB98E1000800B587B030
:1055EC00074B049336230393C823029301210191A3
:1055FC0000910B460022FFF707FC07B05DF804FB97
:10560C00B4E1000800B587B0074B0493372303932C
:10561C00642302930121019100910B460A46FFF786
:10562C00F3FB07B05DF804FBD0E1000800B587B0D0
:10563C00074B049338230393822302930121019196
:10564C0000910B460A46FFF7DFFB07B05DF804FB41
:10565C00ECE1000800B587B0084B049339230393A1
:10566C004FF47A73029301220192009213460021A7
:10567C00FFF7CAFB07B05DF804FB00BF08E20008A7
:10568C0000B587B0074B04933A230393C8230293C6
:10569C0001210191002300930A46FFF7B5FB07B0E7
:1056AC005DF804FB24E2000800B587B0074B0493B7
:1056BC003B230393642302930121019100910B4638
:1056CC000022FFF7A1FB07B05DF804FB40E20008E5
:1056DC0000B587B0074B04933C230393322302930A
:1056EC0001210191002300930A46FFF78DFB07B0BF
:1056FC005DF804FB5CE2000800B587B0074B04932F
:10570C003D230393C82302930121019100910B4681
:10571C000022FFF779FB07B05DF804FB78E2000884
:10572C0000B587B0084B04933E2303934FF4967354
:10573C00029301210191002300930A46FFF764FBB9
:10574C0007B05DF804FB00BF94E2000800B587B019
:10575C00074B04933F2303933223029301210191BE
:10576C0000910B460022FFF74FFB07B05DF804FBDE
:10577C00B0E2000800B587B0074B049340230393B5
:10578C006423029301210191002200921346FFF73A
:10579C003BFB07B05DF804FBCCE2000800B587B01A
:1057AC00074B04934123039332230293012101916C
:1057BC0000910B460022FFF727FB07B05DF804FBB6
:1057CC00E8E2000800B587B0074B0493422303932B
:1057DC006423029301210191002200921346FFF7EA
:1057EC0013FB07B05DF804FB04E3000800B587B0B9
:1057FC00084B0493432303934FF4C8730293012182
:10580C000191002300930A46FFF7FEFA07B05DF8FA
:10581C0004FB00BF20E3000800B587B0074B0493DE
:10582C00452303933223029300210191012200921C
:10583C001346FFF7E9FA07B05DF804FB3CE30008F8
:10584C0000B587B0074B049346230393642302935C
:10585C0000210191012200921346FFF7D5FA07B0FF
:10586C005DF804FB58E3000800B587B0074B0493C0
:10587C0047230393462302930021019101230093B4
:10588C000A46FFF7C1FA07B05DF804FB74E30008A1
:10589C0000B587B0074B04934823039382230293EC
:1058AC0000220192012100910B46FFF7ADFA07B0DF
:1058BC005DF804FB90E3000800B587B0084B049337
:1058CC004923039364230293002301930121009144
:1058DC000B460A46FFF798FA07B05DF804FB00BFC9
:1058EC00ACE3000800B587B0074B04934A2303933D
:1058FC00C823029300220192012100910B46FFF76D
:10590C0083FA07B05DF804FBC8E3000800B587B064
:10591C00084B04934B2303936423029300230193BA
:10592C00012100910B460A46FFF76EFA07B05DF8AD
:10593C0004FB00BFE4E3000800B587B0074B0493F9
:10594C004C230393C823029300220192012100915E
:10595C000B46FFF759FA07B05DF804FB00E40008AA
:10596C0000B587B0084B04934D2303936423029333
:10597C0000230193012100910B460A46FFF744FADC
:10598C0007B05DF804FB00BF1CE4000800B587B04D
:10599C00084B04934E2303934FF47A730293002124
:1059AC000191012200921346FFF72EFA07B05DF821
:1059BC0004FB00BF38E4000800B587B0084B049323
:1059CC004F2303934FF4967302930022019201210B
:1059DC0000910B46FFF718FA07B05DF804FB00BF07
:1059EC0054E4000800B587B0074B0493502303938D
:1059FC003223029300230193009301221146FFF7F7
:105A0C0003FA07B05DF804FB70E4000800B587B03A
:105A1C00074B0493512303936423029300220192B6
:105A2C00012100910B46FFF7EFF907B05DF804FB7D
:105A3C008CE4000800B587B0074B04935223039302
:105A4C003223029300230193009301221146FFF7A6
:105A5C00DBF907B05DF804FBA8E4000800B587B0DB
:105A6C00074B049353230393962302930022019232
:105A7C00012100910B46FFF7C7F907B05DF804FB55
:105A8C00C4E4000800B587B0074B04935423039378
:105A9C00C823029300230193009301221146FFF7C0
:105AAC00B3F907B05DF804FBE0E4000800B587B07B
:105ABC00084B0493552303934FF4967302930023DE
:105ACC000193012100910B460A46FFF79DF907B09F
